:100000000C94D8020C9474240C9449240C941E244F
:100010000C94F3230C94C8230C949D230C9472230A
:100020000C9447230C949B250C949B250C949B25A6
:100030000C94C9260C9409030C9409030C9409032D
:100040000C9409030C9409030C9409030C94090300
:100050000C9409030C9409030C9409030C94FD22DD
:100060000C9409030C9471250C9447250C940903F6
:100070000C9409030C9409030C9409030C940903D0
:100080000C9409030C9409030C9409030C940903C0
:100090000C9409030C9409030C9409030C94A525F2
:1000A0000C9409030C9409030C9409030C940903A0
:1000B0000C9409030C9409030C9409030C94090390
:1000C0000C9409030C9409030C9409030C941D254A
:1000D0000C94F3240C9409030C94C9240C949F24CD
:1000E0000C9409030C945B030C943E1D0C945C0669
:1000F0000C94021D0C9451030C94E0050C942306FF
:100100000C9408160C94EC110C94A0040C94E41CB0
:100110000C9488050C94BB050C949F200C9411083A
:100120000C94F2050C94F9050C94A8050C94201D70
:100130000C948C030C94AA170C9443070C9451074D
:100140000C94F6050C9429060C9491030C944F160C
:100150000C94FF040C940E180C9463030C946D041F
:100160000C944D120C94E1040C9457030C946517F5
:100170000C9498040C94AC050C940A180C94CD04BF
:100180000C94E60F0C9479200C9482050C942216A2
:100190000C94C6050C946C030C940E060C94660328
:1001A0000C94DE400C9463080C947C040C947A0349
:1001B0000C94B4040C94D7040C9486120C9472041E
:1001C0000C94B1060C9470030C947E030C94B1054E
:1001D0000C9406140C9490040C94CA050C942506F7
:1001E0000C94B7050C9432030C94A3120C94650480
:1001F0000C94E2130C9472210C9488030C948F05D8
:100200000C947E050C94A2060C94DC050C948604D8
:100210000C94C0050C94D5050C9476030C949605AB
:100220000C94D9050C94EB040C9454200C94A40564
:100230000C941B160C94EF050C94EB050C94C91C44
:100240000C9424060C94F5040C9476120C94A105DD
:100250000C9435270C9484030C94F9150C949D058B
:100260000C945F030C94F3190C9496030C9456129F
:100270000C949A050C9405180C9485050C94AA040A
:100280000C94CF050C94BE040C94D8130C940B2141
:100290000C94920300407A10F35A00A0724E180991
:1002A0000010A5D4E80000E87648170000E40B54DD
:1002B000020000CA9A3B000000E1F50500008096AC
:1002C0009800000040420F000000A08601000000DE
:1002D000102700000000E803000000006400000098
:1002E00000000A00000000000100000000002C7661
:1002F000D888DC674F0823DFC1DFAE59E1B1B7967C
:10030000E5E3E453C63AE651997696E8E6C28426D8
:10031000EB898C9B62ED407C6FFCEFBC9C9F40F2B4
:10032000BAA56FA5F490055A2AF75C936B6CF96730
:100330006DC11BFCE0E40D47FEF520E6B500D0EDF5
:10034000902E0300943577050080841E080000205D
:100350004E0A000000C80C333333330F986E1283FB
:100360001141EF8D2114893BE65516CFFEE6DB18CF
:10037000D1844B381BF77C1D901DA4BBE424203294
:1003800084725E228100C9F124ECA1E53D277461ED
:1003900075746F2E7478743D224D616E75616C6555
:1003A0002200746175746F2E7478743D22417574E7
:1003B0006F6D617469636F22007C3C3E5E2B3D3F34
:1003C0002F5B5D3B2C2A225C005344206E6F6E2015
:1003D00074726F766174613A206C6F6720736F6C12
:1003E0006F2073752073657269616C6500302C49EC
:1003F0004E464F2C424F4F542C617676696F2073D6
:10040000697374656D61202874696D657374616DBD
:10041000702072656C617469766F20616C6C276105
:100420006363656E73696F6E652C206E6F20525426
:1004300043290A00745F6D732C6C6576656C2C74AF
:1004400061672C6D6573736167650A004169786146
:100450006D20636F6E74726F6C6C657220763220E3
:1004600070726F6E746F00436F6E746174746F207E
:1004700065787472612063656E7472616C696E6117
:1004800020617474697661746F204000000021005F
:10049000240027002A002D00300033000101000055
:1004A000040107010A0100002000230026002900A2
:1004B0002C002F0032000001000003010601090199
:1004C00000000A0B02090C0D0E08070304010000CE
:1004D000000000000000000000000000000000001C
:1004E00000000000000000000000000012111000D9
:1004F00000000000000000000000000000000000FC
:100500000000000000000102102020080810204018
:1005100010204080020102010804020101020408C7
:100520001020408080402010080402018004020155
:10053000804020100804020108040201010204089E
:10054000102040800102040810204080000022009A
:10055000250028002B002E0031003400020100008D
:10056000050108010B010505050507050808080830
:10057000020202020A0A080804040404010101013B
:100580000101010103030303030303030407070736
:100590000C0C0C0C0C0C0C0C0202020206060606DB
:1005A000060606060B0B0B0B0B0B0B0B3527DE4061
:1005B00011241FBECFEFD1E2DEBFCDBF00E00CBFE4
:1005C00018E0A0E0B2E0E4E9F8E900E00BBF02C007
:1005D00007900D92AE3AB107D9F720E1AEEAB8E044
:1005E00001C01D92A93FB207E1F712E0C7EDD2E0CA
:1005F00000E006C021970109802FFE010E94F1460C
:10060000C63DD10780E00807A9F70E94C42C0C94CE
:10061000384C0C940000FC01A089B18982E08C93D5
:10062000A485B5851C92A685B7858FEC8C93108E1A
:10063000A489B58986E08C93A289B3898C91806165
:100640008C93A289B3898C9188608C93A289B38999
:100650008C9180688C930288F389E02D80818F7D56
:100660008083089508958150823108F05AC0E82FA0
:10067000F0E08827E15CFC4F8F4F0C94F1465F035C
:100680006303510357035B03910366036C03700319
:1006900076037A037E038403880391038C03920319
:1006A0009603809180008F778093800008958091D9
:1006B00080008F7DF9CF80918000877FF5CF84B552
:1006C0008F7784BD089584B58F7DFBCF8091B00076
:1006D0008F778093B00008958091B0008F7DF9CF1F
:1006E000809190008F778093900008958091900082
:1006F0008F7DF9CF80919000877FF5CF8091A0000A
:100700008F778093A00008958091A0008F7DF9CF0E
:100710008091A000877FF5CF809120018F77809313
:1007200020010895809120018F7DF9CF80912001D3
:10073000877FF5CFCF93DF93282F30E0F901E05486
:10074000FB4F8491F901EA5FFA4FD491F901EA591C
:10075000FA4FC491CC23A1F081110E943303EC2FF6
:10076000F0E0EE0FFF1FEA55FB4FA591B491EC911D
:10077000ED2381E090E009F480E0DF91CF910895CE
:1007800080E090E0FACF1F93CF93DF93282F30E0E3
:10079000F901E054FB4F8491F901EA5FFA4FD491DB
:1007A000F901EA59FA4FC491CC23A9F0162F81110F
:1007B0000E943303EC2FF0E0EE0FFF1FE45BFA4FD3
:1007C000A591B4918FB7F894EC91111108C0D09510
:1007D000DE23DC938FBFDF91CF911F910895DE2B35
:1007E000F8CFCF93DF9390E0FC01EA5FFA4F2491BA
:1007F0008A599A4FFC0184918823C9F090E0880FB0
:10080000991FFC01E457FB4FA591B491FC01E45BF7
:10081000FA4FC591D49161110DC09FB7F8948C9196
:10082000209582238C938881282328839FBFDF9182
:10083000CF910895623051F49FB7F8943C91822F84
:10084000809583238C93E8812E2BEFCF8FB7F8947C
:10085000EC912E2B2C938FBFEACF1F93CF93DF9376
:10086000182FEB0161E00E94F103209739F460E05A
:10087000812FDF91CF911F910C94C303CF3FD105FE
:1008800011F461E0F5CFE12FF0E0E054FB4FE4918B
:10089000E150E23108F0B3C0F0E08827ED5AFB4F99
:1008A0008F4F0C94F14665046D0472047C04860439
:1008B000FF0490049804A004AA04B404BE04CD0468
:1008C000D704FF04E104EB04F50484B5806884BD1B
:1008D000C7BDDF91CF911F91089584B5806284BD1B
:1008E000C8BDF7CF80918000806880938000D0934E
:1008F0008900C0938800EDCF809180008062809352
:100900008000D0938B00C0938A00E3CF8091800059
:10091000886080938000D0938D00C0938C00D9CFE5
:100920008091B00080688093B000C093B300D1CFB5
:100930008091B00080628093B000C093B400C9CFB2
:1009400080919000806880939000D0939900C0932C
:100950009800BFCF80919000806280939000D093E8
:100960009B00C0939A00B5CF8091900088608093DF
:100970009000D0939D00C0939C00ABCF8091A000CD
:1009800080688093A0008091A0008F7B8093A0005E
:10099000D093A900C093A8009CCF8091A000806252
:1009A0008093A000D093AB00C093AA0092CF809117
:1009B000A00088608093A000D093AD00C093AC00ED
:1009C00088CF80912001806880932001D0932901F5
:1009D000C09328017ECF8091200180628093200106
:1009E000D0932B01C0932A0174CF8091200188609D
:1009F00080932001D0932D01C0932C016ACFC03881
:100A0000D1050CF03ECF33CF90917B00977F909330
:100A10007B008653806480937C0080917A008064A0
:100A200080937A0080917A0086FDFCCF80917800D7
:100A30009091790008953FB7F89480911F0A9091A2
:100A4000200AA091210AB091220A26B5A89B05C0D0
:100A50002F3F19F00196A11DB11D3FBFBA2FA92F3D
:100A6000982F8827BC01CD01620F711D811D911D3A
:100A700042E0660F771F881F991F4A95D1F70895A6
:100A80008F929F92AF92BF92CF92DF92EF92FF929E
:100A90004B015C010E941B056B017C010E941B0540
:100AA0006C197D098E099F09683E73408105910587
:100AB000A8F321E0821A9108A108B10888EEC80EB7
:100AC00083E0D81EE11CF11C81149104A104B1043F
:100AD00029F7FF90EF90DF90CF90BF90AF909F905D
:100AE0008F9008952FB7F89460911B0A70911C0A9B
:100AF00080911D0A90911E0A2FBF089581E0809376
:100B0000B30208951092B30208951092B7020895A7
:100B1000E5EBF2E0808191E0892780830895E2E7A8
:100B2000F2E080AD91E0892780AF089581E0809365
:100B3000C60208951092C602089581E08093B6021D
:100B400008951092B602089581E08093B702089547
:100B500081E08093C00208951092C0021092980222
:100B600008951092C00281E080939802089581E078
:100B70008093C10208951092C102109299020895C3
:100B80001092C10281E080939902089581E08093E0
:100B9000C30208951092C3021092C20208951092E7
:100BA000C30281E08093C202089581E08093A6028F
:100BB00008951092A602089582E08093B7020895E6
:100BC0008091A7028F5F833018F48093A702089565
:100BD0001092A702089581E08093B40208951092C4
:100BE000B402089581E08093C50208951092C50271
:100BF0000895CF93DF93C2E7D2E02DEC3CEC4CECB0
:100C00005DE3688579858A859B850E94A54568870F
:100C100079878A879B87DF91CF910895CF93DF9360
:100C2000C2E7D2E02DEC3CEC4CEC5DE368857985C5
:100C30008A859B850E94A645688779878A879B87D6
:100C4000DF91CF9108950895089581E08093150A6A
:100C500008950895DB0114964D915C9115976D915F
:100C60007C91DC01ED91FC910280F381E02D1994DF
:100C7000EF92FF920F931F93CF93DF938C017B0131
:100C8000D0E0C0E0F701EC0FFD1F6491662361F036
:100C9000D801ED91FC910190F081E02DC8011995EA
:100CA000892B11F02196EECFCE01DF91CF911F91CC
:100CB0000F91FF90EF900895AF92BF92CF92DF9285
:100CC000EF92FF920F931F93CF93DF936C017B0101
:100CD0008B01040F151FEB015E01AE18BF08C01792
:100CE000D10759F06991D601ED91FC910190F08105
:100CF000E02DC6011995892B79F7C501DF91CF91B8
:100D00001F910F91FF90EF90DF90CF90BF90AF9029
:100D10000895FC01A089B1898C91A689B78982FDCB
:100D20000FC09C91818D8F5F8F73228D821749F048
:100D3000A18DAE0FBF2FB11D5D969C93818F08953D
:100D40008C910895FC01538D448D252F30E0842F24
:100D500090E0821B930B541710F0CF9608950197E3
:100D60000895FC01918D828D981761F0A28DAE0FD0
:100D7000BF2FB11D5D968C91928D9F5F9F73928F57
:100D800090E008958FEF9FEF08958F929F92AF921A
:100D9000BF92EF92FF920F931F93CF93DF937B014C
:100DA0008C01D0E0C0E00E9472056093D40C709377
:100DB000D50C8093D60C9093D70C8CEC9CE00E94C1
:100DC000B10697FF27C00E9472058090D40C9090C6
:100DD000D50CA090D60CB090D70C681979098A0967
:100DE0009B098090D00C9090D10CA090D20CB09028
:100DF000D30C681579058A059B05F8F2CE01DF91C1
:100E0000CF911F910F91FF90EF90BF90AF909F9067
:100E10008F900895F80181938F012196EC16FD06BD
:100E200011F6ECCFCF93DF9300D01F92CDB7DEB792
:100E300019821A821B821C8284E690E0A0E0B0E056
:100E40008093D00C9093D10CA093D20CB093D30C80
:100E500064E070E0CE0101960E94C5068981813070
:100E600051F48A818F3F39F48B818F3F21F481E0E7
:100E70009C819F3F09F080E00F900F900F900F90A2
:100E8000DF91CF910895FC01918D828D981731F0FB
:100E9000828DE80FF11D858D90E008958FEF9FEF13
:100EA0000895FC01918D228D892F90E0805C9F4FE9
:100EB000821B91098F7399270895CF93DF938CEC50
:100EC0009CE00E945107181619060CF067C06AE0F2
:100ED00070E080E090E00E9440058CEC9CE00E9475
:100EE000B106C82F853659F78CEC9CE00E9451075B
:100EF00006972CF3C093230AC4E2DAE08CEC9CE062
:100F00000E94B10689938AE0CA32D807B9F71092D5
:100F10002A0A8091270A8F3F91F68091280A8F3FF5
:100F200071F68091290A8F3F51F69091250A209100
:100F3000240AECE1F2E0A191B191109709F4BFCF3E
:100F40008C912813F8CF11968C9111979813F3CFA9
:100F50004091260A50E070E060E0413051056105A3
:100F6000710561F41496ED91FC911597309709F491
:100F7000A6CF16968D919C911995A1CF452B462B06
:100F8000472B09F09CCF1896ED91FC91199730975B
:100F900009F495CF1A968D919C91EECFDF91CF9168
:100FA00008958FE29CE00E94510721E0892B09F40B
:100FB00020E0822F08958CEC9CE00E94510721E0F4
:100FC000892B09F420E0822F089589E69DE00E9494
:100FD000510721E0892B09F420E0822F0895FC01BC
:100FE000A48DA80FB92FB11DA35ABF4F2C91848D8A
:100FF00090E001968F739927848FA689B7892C93E7
:10100000A089B1898C91837080648C93938D848D39
:10101000981306C00288F389E02D80818F7D80833C
:101020000895EF92FF920F931F93CF93DF93EC01FC
:1010300081E0888F9B8D8C8D98131AC0E889F9897F
:10104000808185FF15C09FB7F894EE89FF89608382
:10105000E889F98980818370806480839FBF81E003
:1010600090E0DF91CF911F910F91FF90EF90089545
:10107000F62E0B8D10E00F5F1F4F0F731127E02E20
:101080008C8D8E110CC00FB607FCFACFE889F98958
:10109000808185FFF5CFCE010E94EF07F1CFEB8D68
:1010A000EC0FFD2FF11DE35AFF4FF0829FB7F8942C
:1010B0000B8FEA89FB8980818062CFCF6FEF8CEC48
:1010C0009CE00C941108CF93DF93EC01888D88236A
:1010D000B9F0AA89BB89E889F9898C9185FD03C09B
:1010E000808186FD0DC00FB607FCF7CF8C9185FF80
:1010F000F2CF808185FFEDCFCE010E94EF07E9CFCF
:10110000DF91CF91089580E090E0892B29F00E9433
:10111000E50781110E94000080E090E0892B49F0F2
:1011200080E090E0892B29F00E94000081110E944C
:10113000000080E090E0892B29F00E94DB078111FC
:101140000E94000080E090E0892B29F00E94D107E6
:1011500081110C94000008958FB7F89480919D0937
:101160008FBF089561E0FC0184810E94C3038091D8
:101170009C09811110929C0908958EBD00000DB448
:1011800007FEFDCF8EB508958FEF0C94BD080F9329
:101190001F93CF93DF93EC010E9472058B010E9495
:1011A000C4088F3F69F00E947205601B710B6C17B9
:1011B0007D07A8F380E0DF91CF911F910F910895F3
:1011C00081E0F9CF8CBD9DBD0895CF93DF93EC01F5
:1011D00080919C09811109C081E080939C098091D4
:1011E000060E9091070E0E94E20860E08C81DF916C
:1011F000CF910C94C3038F929F92AF92BF92FF92B4
:101200000F931F93CF93DF93EC01F62E49015A0100
:101210008E81882389F08F8198859C012F5F3F4FB5
:1012200038872F838230924018F40E94C408F3CF8D
:10123000CE010E94B2081E82CE010E94E5088CE217
:1012400091E00E94C7088F2D80640E94BD0808E1CC
:1012500010E0D501C401002E04C0B695A79597955E
:1012600087950A94D2F70E94BD0808501109083FDB
:101270008FEF180771F785E9FF2021F028E087E854
:10128000F2128FEF0E94BD0810E00E94C4088A8706
:1012900087FF04C01F3F11F01F5FF7CFDF91CF9191
:1012A0001F910F91FF90BF90AF909F908F900895E6
:1012B000AF92BF92CF92DF92EF92FF920F931F9364
:1012C000CF93DF93EC016901C801820F931F813036
:1012D000924050F58E81882379F088819981AA8186
:1012E000BB8184179507A607B70731F48F819885CE
:1012F000C816D90608F042C0488359836A837B83A5
:101300008B85833039F089E0440F551F661F771FA6
:101310008A95D1F79A01AB0161E1CE010E94FB08E9
:10132000882389F083E08D83CE010E94B20880E09B
:10133000DF91CF911F910F91FF90EF90DF90CF90B1
:10134000BF90AF9008950E9472055B010E94C4088F
:101350008A878F3F69F40E9472056A197B096D3292
:101360007140A0F38FE08D83CE010E94B208DCCFE4
:101370008E3F89F418861F8281E08E838F81988545
:101380008C159D0550F40E94C4088F8198850196A4
:1013900098878F83F3CF8DE0E6CF6701E00EF11ED3
:1013A0000E94C408F60181936F01EE15FF05C1F795
:1013B0008F819885080F191F18870F8389858823C7
:1013C00019F001151240A0F08E81882389F08F81D9
:1013D00098859C012F5F3F4F38872F838230924042
:1013E00018F40E94C408F3CFCE010E94B2081E82F6
:1013F00081E09ECFCF92DF92EF92FF920F93CF9337
:10140000DF93EC01690182E1411551056105710528
:1014100099F08B85833039F089E0440F551F661FA2
:10142000771F8A95D1F79A01AB0168E1CE010E943E
:10143000FB08882319F084E08D832DC08EEF0E9475
:10144000BD0876018EEFD81AF70181917F010E94C5
:10145000BD08EC14FD04C1F78FEF0E94BD088FEFAB
:101460000E94BD080E94C4088A878F71853071F47C
:10147000011116C0CE010E94B20881E0DF91CF9128
:101480000F91FF90EF90DF90CF90089581E18D83D1
:10149000CE010E94B208CE010E94B20880E0EECFD9
:1014A00088E592E00E94C708811102C085E1C4CF9F
:1014B00020E030E0A9016DE0CE010E94FB08882306
:1014C00011F084E1B9CF0E94C4088111FACFD2CFC4
:1014D0000F9340919F095091A0096091A1097091CB
:1014E000A209411551056105710599F0082F2DE2FA
:1014F0003AE080912D0C90912E0C0E94FA098823DD
:1015000049F010929F091092A0091092A10910921F
:10151000A20981E00F9108950F93CF93C82F809176
:101520009E09811105C0C1E08C2FCF910F910895C4
:1015300040910002509101026091020270910302F9
:101540000C2F2DE23AE080912D0C90912E0C0E94F0
:10155000FA09811102C0C0E0E7CFCC2321F381E07A
:101560000E94680A8823B9F310929E09DDCF8F92FA
:101570009F92AF92BF92EF92FF920F931F93CF93E0
:101580004B015C01C42F8091000290910102A09157
:101590000202B091030288159905AA05BB0551F115
:1015A00081E00E948C0A81110BC080E0CF911F91D5
:1015B0000F91FF90EF90BF90AF909F908F90089504
:1015C0008DE2E82E8AE0F82E00E012E030E020E024
:1015D000B501A40180912D0C90912E0C0E94580908
:1015E000882319F38092000290920102A0920202D5
:1015F000B092030240919E094C2B40939E0981E0DA
:10160000D5CF8F929F92AF92BF92CF92DF92EF92FF
:10161000FF92CF9328E03EE030932E0C20932D0CC8
:10162000882309F46DC040E060E070E0CB010E94C7
:10163000B70A81110BC080E0CF91FF90EF90DF904F
:10164000CF90BF90AF909F908F9008958091EB0BBB
:101650008F7789F78091F70B9091F80BA091F90B98
:10166000B091FA0B84369105A105B10520F3C09025
:10167000F30BD090F40BE090F50BF090F60BC11447
:10168000D104E104F104B9F240E0C701B6010E94BF
:10169000B70A882381F28091380A9091390A81151E
:1016A000924049F6A0913D0AAA2329F260913B0A93
:1016B00070913C0A6115710509F4BDCF20913A0A79
:1016C000222309F4B8CFA093260E2093180E90E0A1
:1016D00080E030E0E1E0F0E0C82FAF01082E02C06A
:1016E000440F551F0A94E2F72417350769F041E0CB
:1016F000480F01968930910579F74093210E9BCFD1
:10170000C12CD12C7601C0CF8093210E2091430AA9
:101710003091440A50E040E02115310541F4209118
:10172000510A3091520A4091530A5091540A209321
:10173000190E30931A0E40931B0E50931C0E460147
:101740005701860E971EA11CB11C8092270E909205
:10175000280EA092290EB0922A0EE0913E0AF09136
:101760003F0AF0932D0EE0932C0EB0E00E946945E5
:10177000DC01CB01880D991DAA1DBB1D80932E0E87
:1017800090932F0EA093300EB093310E25E0EE0F04
:10179000FF1F2A95E1F7E150FE4FEF2FFF27E69557
:1017A0008E0F9F1FA11DB11D8093220E9093230EBB
:1017B000A093240EB093250E8090400A9090410A89
:1017C000B12CA12C8114910441F480904D0A909089
:1017D0004E0AA0904F0AB090500AC81AD90AEA0AD5
:1017E000FB0AC80CD91CEA1CFB1C04C0F694E79445
:1017F000D794C794CA95D2F7C0921D0ED0921E0EF0
:10180000E0921F0EF092200E85EFC8168FE0D806EA
:10181000E104F10428F48CE080932B0E81E00CCFDE
:1018200080E125EFC2162FEFD206E104F104A0F308
:101830008091590A90915A0AA0915B0AB0915C0A72
:1018400080932E0E90932F0EA093300EB093310EF6
:1018500080E2E2CF4F925F926F927F928F929F923F
:10186000AF92BF92CF92DF92EF92FF920F931F93AE
:10187000CF93DF93EC01423051056105710590F47F
:1018800080E0DF91CF911F910F91FF90EF90DF905B
:10189000CF90BF90AF909F908F907F906F905F9010
:1018A0004F90089589859A85AB85BC850196A11DC9
:1018B000B11D84179507A607B70710F3CB88DC88FE
:1018C000ED88FE888F89803109F042C0BB27A72FA1
:1018D000962F852F480159012A013B01C80ED91EB8
:1018E000EA1EFB1E8091000290910102A09102026B
:1018F000B0910302C816D906EA06FB0699F58F894E
:101900008031C1F5B301A201552766277727440F1F
:10191000551F435D554FFA019182808280919E0947
:10192000816080939E098A89823080F08D819E81BA
:10193000AF81B8858C0D9D1DAE1DBF1D80939F0985
:101940009093A009A093A109B093A20981E099CF37
:10195000DB01CA01E7E0B695A79597958795EA95CB
:10196000D1F7B8CF40E0C701B6010E94B70A811194
:10197000C6CF86CFB301A2014F77552766277727B9
:10198000440F551F440F551F435D554FFA01808288
:101990009182A282B382C2CF8F929F92AF92BF9266
:1019A000CF92DF92EF92FF920F931F93CF93DF932B
:1019B000FC0181859285A385B4850196A11DB11D89
:1019C00084179507A607B70770F480E0DF91CF91E1
:1019D0001F910F91FF90EF90DF90CF90BF90AF904D
:1019E0009F908F90089583889488A588B68887896A
:1019F000803189F5BB27A72F962F852FE9016A0132
:101A00007B018F01BC01CD01680D791D8A1D9B1DD5
:101A10008090000290900102A0900202B090030218
:101A200086169706A806B90601F5F8018789803160
:101A300011F5DD24EE24FF24F601EE0FFF1FE35D18
:101A4000F54F80819181B0E0A0E088839983AA83DB
:101A5000BB8381E0BBCFDB01CA01C7E0B695A79588
:101A600097958795CA95D1F7C9CF40E00E94B70AEC
:101A70008111DBCFAACFE894C7F8DD24EE24FF2440
:101A8000F601EE0FFF1FEE0FFF1FE35DF54F8081A4
:101A90009181A281B381BF70D8CF4F925F926F9234
:101AA0007F92AF92BF92CF92DF92EF92FF920F930D
:101AB0001F93CF93DF9300D01F92CDB7DEB78C0179
:101AC00049835A836B837C835901C12CD12C7601C5
:101AD000412C82E0582E612C712C49815A816B81F6
:101AE0007C819E012F5F3F4FC8010E94CC0C882350
:101AF00039F1F8018585A301920104C0220F331F3B
:101B0000441F551F8A95D2F7DA01C901C80ED91EA4
:101B1000EA1EFB1E49815A816B817C818789803155
:101B200011F188EF9FEFAFEFBFE0481759076A0741
:101B30007B0798F2F501C082D182E282F38281E0D4
:101B40000F900F900F900F90DF91CF911F910F91F9
:101B5000FF90EF90DF90CF90BF90AF907F906F900D
:101B60005F904F90089588EF9FEFA0E0B0E0DDCF49
:101B7000CF93DF93FC012581222321F080E0DF91C8
:101B8000CF910895EC0180912B0E803159F582E0C0
:101B90008583178A108E118E128E80912C0E909153
:101BA0002D0EB0E0A0E025E0880F991FAA1FBB1FF3
:101BB0002A95D1F7838B948BA58BB68B84E19EE01D
:101BC0009C8F8B8F81E08C831E821F8218861986E2
:101BD0001A861B861C861D861E861F86188A198AF1
:101BE0001A8ACDCF803251F683E0858340912E0E44
:101BF00050912F0E6091300E7091310E478B508FA7
:101C0000618F728F9F012D5E3F4F84E19EE00E94A5
:101C10004D0D8111D3CFB2CF8F929F92AF92BF92D1
:101C2000CF92DF92EF92FF920F931F93CF93DF93A8
:101C3000EC018D8181110EC080E0DF91CF911F9169
:101C40000F91FF90EF90DF90CF90BF90AF909F905B
:101C50008F9008950B891C892D893E8904171507DB
:101C60002607370748F34A015B01823031F48A8640
:101C70009B86AC86BD8681E0E0CF81149104A104EF
:101C8000B10449F41E821F82188619861A861B86A3
:101C90001C861D86F0CF0A851B852C853D85EB8D26
:101CA000FC8D858590E00996B901A8014150510944
:101CB00061097109082E04C0769567955795479577
:101CC0000A94D2F775016401E1E0CE1AD108E10867
:101CD000F10804C0F694E794D794C7948A95D2F794
:101CE000C416D506E606F70620F0012B022B032BBF
:101CF00011F58F89988DA98DBA8D8E839F83A887C2
:101D0000B9878E010A5F1F4FC114D104E104F104A9
:101D100009F4ADCF4E815F816885798598018B8DFF
:101D20009C8D0E94CC0C91E0C91AD108E108F10801
:101D30008111EACF81CFC41AD50AE60AF70AE1CFAA
:101D40003F924F925F926F927F928F929F92AF924B
:101D5000BF92CF92DF92EF92FF920F931F93CF9398
:101D6000DF93CDB7DEB72C970FB6F894DEBF0FBE6A
:101D7000CDBF5C01DC015B968D909C905C971696C4
:101D80004D905D906D907C901997411451046104C1
:101D9000710409F468C0BFEF4B1A5B0A6B0A7B0A37
:101DA000312CF40181859285A385B4859C01AD0118
:101DB0002F5F3F4F4F4F5F4F29873A874B875C8795
:101DC000730162011D821E821F821886F4018185C3
:101DD0009285A385B4852D813E814F815885281732
:101DE00039074A075B0708F056C089859A85AB8595
:101DF000BC858C159D05AE05BF0550F482E0C82E4C
:101E0000D12CE12CF12C92E0492E512C612C712C1B
:101E10009E012F5F3F4FB701A601C4010E94CC0C69
:101E20008823C9F189819A81AB81BC81892B8A2B56
:101E30008B2B09F1260137019FEF491A590A690ACC
:101E4000790A2D813E814F8158852F5F3F4F4F4F3B
:101E50005F4F2D833E834F8358873FEFC31AD30ACA
:101E6000E30AF30AB3CFF4014080518062807380AB
:101E70003324339496CFC414D504E604F70409F749
:101E80000FEF1FEF2FEF3FE0B701A601C4010E9443
:101E90002A0C811119C080E02C960FB6F894DEBF91
:101EA0000FBECDBFDF91CF911F910F91FF90EF90AB
:101EB000DF90CF90BF90AF909F908F907F906F906A
:101EC0005F904F903F900895D50116964D915D918A
:101ED0006D917C911997411551056105710539F096
:101EE00097018601C4010E942A0C8823A1F2D50122
:101EF0001696CD92DD92ED92FC921997332051F017
:101F0000D701C6010196A11DB11DF4018083918303
:101F1000A283B383F5018789908DA18DB28D892B22
:101F20008A2B8B2B39F48481C78AD08EE18EF28E76
:101F300080688483F50184818062848381E0ACCFF2
:101F40001F93CF93DF93FC0125812223D1F1162F1C
:101F5000EC01848187FF2AC0668577858089918915
:101F600041E00E94B70A882361F1EA8980E2E89F94
:101F7000F0011124E35DF54F309719F18D81823026
:101F800040F48B899C89AD89BE89848F958FA68FFB
:101F9000B78F8F89988D938F828F8F89988DA98D18
:101FA000BA8DB58BA48B8C818F778C83111103C074
:101FB0008C818F7E8C83812FDF91CF911F910C9428
:101FC0008C0A80E0DF91CF911F910895FF920F93CB
:101FD0001F93CF93DF93EC018D81813041F090E02E
:101FE00080E0DF91CF911F910F91FF9008958C8138
:101FF00081FFF5CF82FD1BC000912D0C10912E0C9E
:10200000C8010E94E5080E94C408F82EC8010E9479
:10201000B2088FEFF812E3CF8C8185FF1BC060E020
:10202000CE010E94A00F8C818F7D8C83D8CF4B89ED
:102030005C896D897E898A859B85AC85BD85841781
:102040009507A607B707C1F2CE010E940C0E8111B9
:10205000D3CFC5CF40919F095091A0096091A109AC
:102060007091A209452B462B472B21F080E00E945E
:10207000680AB5CF80618C832A853B85317080E00A
:1020800092E0821B930BADCFCF93DF93EC0161E025
:102090000E94A00F882311F01D8281E0DF91CF9173
:1020A00008952F923F924F925F926F927F928F92FC
:1020B0009F92AF92BF92CF92DF92EF92FF920F93D7
:1020C0001F93CF93DF9300D01F921F92CDB7DEB73F
:1020D0007C015B01342E5D83DC0115968C91159794
:1020E000813009F0CEC014962C9021FECAC022FC8B
:1020F000B4C0C32CDD8022947FE027222094B22D2F
:10210000B1702B2ED7011A964D915D916D917C91F6
:102110001D97C114D10409F428C15B968D919C913F
:102120005C97FC0174807A948A019B0169E0369582
:102130002795179507956A95D1F770228A01117036
:10214000711020C001151105E9F416964D915D91AD
:102150006D917C911997411551056105710509F043
:1021600099C057968D919D910D90BC91A02D00978F
:10217000A105B10509F0B0C0C7010E94A00E8823D7
:1021800009F47FC080E092E0801B910B46018C1522
:102190009D0508F44C01D7015B964D915C915C97CD
:1021A00016968D919D910D90BC91A02D0297A1093D
:1021B000B109FA01258504C0880F991FAA1FBB1F0A
:1021C0002A95D2F74685578560897189840F951FB6
:1021D000A61FB71F9C01AD01270D311D411D511DCB
:1021E00029013A01811432E0930609F07BC0809105
:1021F000000290910102A0910202B09103028415A5
:102200009505A605B70559F48FEF9FEFDC01809384
:10221000000290930102A0930202B0930302022DE8
:102220009501B301A20180912D0C90912E0C0E947A
:10223000FA09882331F19EEFB91AC818D908F701B5
:1022400082859385A485B585880D991DA11DB11D35
:1022500082879387A487B58755CFF701438954892F
:102260006589768982859385A485B5854817590740
:102270006A077B0709F43DCFC7010E940C0E81114C
:1022800038CF81E090E0D70113969C938E931297FC
:1022900080E007C09E012F5F3F4F0E94CC0C811150
:1022A00002C090E079C089819A81AB81BC81F7013D
:1022B000238D348DF901278948EF5FEF60E070E0EE
:1022C000203121F048EF5FEF6FEF7FE08417950733
:1022D000A607B70708F050CFF70186839783A0873A
:1022E000B18750CF0115110599F5D7011A964D9177
:1022F0005D916D917C911D9753968D919D910D905F
:10230000BC91A02D481759076A077B0708F181E0A7
:102310000E948C0A882309F4B4CF409200025092A4
:102320000102609202027092030280919E09816014
:1023300080939E09C801835D954FD5019C01280DAE
:10234000391DFC012E173F0759F04D914193FACFEB
:1023500041E0C301B2010E94B70A8111EBCF91CFD6
:10236000281B390BA20EB31E68CFF701838994890D
:10237000A589B68984179507A607B70738F484811D
:10238000438B548B658B768B80688483F7018481C3
:1023900083FD1AC0832D9D810F900F900F900F9099
:1023A0000F90DF91CF911F910F91FF90EF90DF90F1
:1023B000CF90BF90AF909F908F907F906F905F90E5
:1023C0004F903F902F90089561E0C7010E94A00FA9
:1023D000882309F456CFDECFCF93DF931F92CDB77A
:1023E000DEB7698341E050E0BE016F5F7F4F0E941E
:1023F00051100F90DF91CF910895FC01DB011296EF
:102400008D919C911397938382838CE293E09183C7
:10241000808314968C911497848315968C911597CC
:10242000858316964D915D916D917C9119974683A8
:102430005783608771871A964D915D916D917C915C
:102440001D9742875387648775871E964D915D91CE
:102450006D917C91519746875787608B718B52960F
:102460008C915297828B53964D915D916D917C9199
:102470005697438B548B658B768B57964D915D9118
:102480006D917C915A97478B508F618F728F5B96BD
:102490008D919C91948F838F0895FC01818D928DF5
:1024A000009719F061E00C94A00F0895DC01599693
:1024B000ED91FC913097B9F083899489A589B6890B
:1024C0004285538564857585841B950BA60BB70BD8
:1024D000811520E89207A105B10538F08FEF9FE73D
:1024E000A0E0B0E0089590E080E00895DC01599606
:1024F0008D919C91009739F0DC01ED91FC91048065
:10250000F581E02D199490E080E00895CF93DF935A
:10251000EC01E98DFA8D309749F481E090E09B83DE
:102520008A8390E080E0DF91CF9108951382128238
:10253000898D9A8D0E945110E98DFA8D2281338107
:10254000232B59F7F0CFCF93DF931F92CDB7DEB790
:102550006983DC01ED91FC910280F381E02D41E083
:1025600050E0BE016F5F7F4F19950F90DF91CF91C3
:1025700008952F923F924F925F926F927F928F9227
:102580009F92AF92BF92CF92DF92EF92FF920F9302
:102590001F93CF93DF9300D0CDB7DEB7FC018581C9
:1025A000811118C08FEF9FEF0F900F900F90DF9168
:1025B000CF911F910F91FF90EF90DF90CF90BF9040
:1025C000AF909F908F907F906F905F904F903F90D3
:1025D0002F900895848180FFE5CF438954896589D0
:1025E000768982859385A485B585312C212C481761
:1025F00059076A077B0719F022242394312C6F01B5
:102600002101CE0101963C01DF011696BB83AA830E
:102610004114510409F4C5C0F6014285538564850F
:1026200075854A01F1E09F22D6015B968D919C91C0
:102630005C978A019B01E9E03695279517950795E8
:10264000EA95D1F71596EC91E230E9F5FC01628D3F
:10265000738D848D958D600F711F821F931FA12C28
:1026600022E0B22EA818B9084A145B0408F45201FB
:10267000F601248126FD04C0A114F2E0BF0671F426
:102680000091000210910102209102023091030298
:10269000061717072807390709F05EC040E00E94B7
:1026A000B70A882309F47ECFC401835D954FD30117
:1026B0009C012A0D3B1DFC012E173F0709F46CC03D
:1026C00041914D93F9CFDC011496BC90BA94B0229D
:1026D0008114910479F4B1100DC0452B462B472B82
:1026E00069F5F6018789908DA18DB28D86839783D8
:1026F000A087B187D6015B96ED91FC915C97169609
:102700006D917D918D919C9119976250710981090C
:102710009109258504C0660F771F881F991F2A9588
:10272000D2F70685178520893189600F711F821FB6
:10273000931F6B0D711D811D911D91CFD6011696B2
:102740004D915D916D917C9119972A813B810E94F9
:10275000CC0C8111CFCF26CF730185019401AB0141
:10276000BC0180912D0C90912E0C0E945809882359
:1027700009F418CF6A0C7B1CF60182859385A48529
:10278000B5858A0D9B1DA11DB11D82879387A487E6
:10279000B5874A185B083CCF281B390B620E731EA5
:1027A000EBCF2A94232809F0FDCE898190E0FCCE5E
:1027B000FC01818D928D009711F00C94B9128FEF6E
:1027C0009FEF08950F931F93CF93DF93EC01898DB3
:1027D0009A8D10E000E0009799F00E94B9128C01E8
:1027E0000F3F100769F0898D9A8DFC014285538552
:1027F0006485758541505109610971090E940C0E6B
:10280000C801DF91CF911F910F9108950895CF9343
:10281000DF93EC0160E08E810E94F10361E08E8124
:102820000E94C30319861A861B861C86DF91CF91EE
:102830000895FF920F931F93CF93DF93EC01FF2432
:10284000F394F60E28852F1581F109851A852150FC
:1028500041F16F3FE1F430E050E040E06FEF7FEF97
:1028600080E090E00E944A45B901F8014C815D8109
:10287000CF01801B910B84179507B0F44081469FD0
:10288000C001479F900D112490833196EFCF8F2D7B
:1028900090E0982F88270197622F70E00E94C94628
:1028A000E4CF70E060E0E1CFF886DF91CF911F9137
:1028B0000F91FF9008950F931F93DC0112968D9155
:1028C0009C91139768177907C0F518968C91189703
:1028D000882361F0489FA0011124452F829F900119
:1028E0001124232F809F80011124012F1E968C918B
:1028F0001E971996ED91FC911A971B969C911B9728
:1029000089131EC0CB01880F991F680F791F6E0FA6
:102910007F1F1B96EC911B97E60FF72FF11D40834D
:102920001C96EC911C97E60FF72FF11D20831D9646
:102930008C91680F711DFB0100831F910F91089509
:10294000660F771F660F771F6E0F7F1FFB01E80F63
:10295000F11D1082DECFCF92DF92EF92FF920F93A4
:102960001F93CF93DF9300D000D000D0CDB7DEB758
:102970008C01DC0119968D919C91892B09F473C00F
:102980000E941B05F801C784D088E188F2886C1585
:102990007D058E059F0520F46787708B818B928B58
:1029A000F801C784D088E188F2886C197D098E0906
:1029B0009F096C3271408105910510F3F894D8019C
:1029C00014968D919C9115979A8389831996ED9110
:1029D000FC917F01BFEFEB1AFB0A80818987F80128
:1029E00090810388F489E02DD80155968C91992324
:1029F00009F448C09081982B98879081809589230D
:102A00008F838F818C8388E08B8358856F81498584
:102A10003B812C8189819A81D701508347FD252FE5
:102A20003A952083262F39F0441F00C000006083B0
:102A3000000000C0F2CF38E04D91608300000197A4
:102A400061F7D8015496FC93EE93539749873B83E3
:102A50002C839A83898378940E941B05F8016787E9
:102A6000708B818B928B29960FB6F894DEBF0FBEC8
:102A7000CDBFDF91CF911F910F91FF90EF90DF902D
:102A8000CF9008959081982B988790818095892385
:102A90008F838F818E8388E08D8358856F814985F0
:102AA0003D812E8189819A81D701508347FD252F51
:102AB00000C000C0208300C000C000C000C000C033
:102AC00060830000262F3A9541F0441F000000C0AB
:102AD00000C000C000C000C0E8CF38E04D9100C089
:102AE000608300C0019709F7D8015496FC93EE93D8
:102AF000539749873D832E83ACCFCF93DF93EC016F
:102B00008E819F8197FD0CC061E00E94F10360E01F
:102B10008E810E94C30381E08983DF91CF91089564
:102B2000198280E0FACF20912B09260F3327331F1B
:102B300021323105ECF420917409FC0190E080E031
:102B4000243069F082E00895A0912B092191AC0115
:102B5000455F564FA40FB52FB11D2C9301968617D4
:102B600098F380912B09680F60932B0980E00895FA
:102B700081E008951092740981E0809373091092A6
:102B80004E0961E084E10E94C30361E085E10E9497
:102B9000C303E9EBF0E080818E7F808380818D7FAD
:102BA000808388E48093B80085E48093BC00089516
:102BB000CF93DF9391E090930A098823B9F0C091F5
:102BC000B800D091BA008091BC008A7B8093BC0091
:102BD00060E084E10E94C30360E085E10E94C303DA
:102BE0000E94BA15D093BA00C093B800DF91CF917C
:102BF0000895E091AD098091AC09E81730F4F0E058
:102C0000E651F74F808190E008958FEF9FEF089590
:102C10009091AD098091AC092FEF3FEF981748F4E0
:102C2000E92FF0E0E651F74F208130E09F5F90936D
:102C3000AD09C90108958091AC099091AD09891B36
:102C4000990B0895CF92DF92EF92FF920F931F930B
:102C5000CF93DF937C01CB018A0120917A09222353
:102C600089F0EB016B01C40ED51ECC15DD0569F0B2
:102C70006991D701ED91FC910190F081E02DC701A0
:102C80001995F3CF642F0E949315C801DF91CF915E
:102C90001F910F91FF90EF90DF90CF900895CF9309
:102CA000DF931F92CDB7DEB7698320917A09222383
:102CB000F9F02091AA09203258F021E030E0FC011F
:102CC0003383228390E080E00F90DF91CF910895CD
:102CD0008091AB09E82FF0E0E558F64F9981908399
:102CE0008F5F8093AB098093AA0981E090E0ECCFDD
:102CF00061E0CE0101960E949315F7CFCF92DF924B
:102D0000EF92FF920F931F93CF93DF93FC01C48147
:102D100021E020937A09C0939B091092AB0910928D
:102D2000AA098385682B81E59EE00E944F16D09109
:102D3000AA09D13208F092C00E941B056B017C01E8
:102D400080917409811165C082E08093740981E0EB
:102D5000809373098FEF8093720910927109D09359
:102D60007009ABE7B9E0E0E5F9E080E0D81385C091
:102D700010924F0980914F09CC0FC82BC0934F0977
:102D800080914E09813009F07CC010924E090E945A
:102D90001B056B017C0180914F098093BB008091E2
:102DA000760990917709A0917809B0917909892BDA
:102DB0008A2B8B2B99F00E941B05009176091091AC
:102DC000770920917809309179096C197D098E096C
:102DD0009F090617170728073907E0F18091BC0003
:102DE00083FDD9CF85EC8093BC000E941B056B014D
:102DF0007C0180917409823009F445C08091720988
:102E00008F3F61F180917209803241F180917209A6
:102E100025C08091760990917709A0917809B091A9
:102E20007909892B8A2B8B2B09F48ACF0E941B05E9
:102E300000917609109177092091780930917909EC
:102E40006C197D098E099F0906171707280739078E
:102E500008F076CF809175090E94D8151092AB09C1
:102E60001092AA0910927A09DF91CF911F910F91C8
:102E7000FF90EF90DF90CF9008959D9191938F5F99
:102E800075CF85EEB0CF8091760990917709A091AA
:102E90007809B0917909892B8A2B8B2B09F4A9CF5A
:102EA0000E941B05009176091091770920917809FD
:102EB000309179096C197D098E099F09061717074A
:102EC0002807390708F095CFC5CF90E080E0089536
:102ED000811112C08FE261E00E94C3030E9472055B
:102EE0006093BC097093BD098093BE099093BF099C
:102EF00081E08093C00908958EE2EDCF0E945E08C4
:102F00000E945E080C945E0880918502811104C0C5
:102F10008091C60918161CF48FEF8093C609089596
:102F2000CF9380918502882321F08091C60987FF85
:102F30000FC0C1E0C09385020E94720560938602B3
:102F4000709387028093880290938902C093C60988
:102F5000CF910895CF9382E10E949A03C82F83E115
:102F60000E949A032091AF08CC0F94E0299F900112
:102F70001124822BC82BCF70C093AF08E091AF080B
:102F80008091AE08F0E0E451FD4F9081890F80936D
:102F9000AE088091AE0884304CF08091CF098F5FED
:102FA0008093CF091092AE08CF9108958091AE081A
:102FB0008D3FD4F78091CF098150F2CF0F93CF93FB
:102FC000DF93D0E0C0E08091A8020091BC02209184
:102FD000BB024091BA02811103C000E020E040E052
:102FE000BE0189ED90E10E945B142196C830D105A5
:102FF00051F76FEF89ED90E10E94191489ED90E18E
:10300000DF91CF910F910C94AB1481E08093A802D3
:103010000C94DE171092A8020C94DE178091A9027E
:103020008F5F66E00E94BD469093A902933031F114
:1030300060F49130A1F09230D9F08FEF8093BA0212
:103040008093BB028093BC0211C09430E9F09530AC
:10305000A1F71092BA028BEF8093BB0213C08FEFDF
:103060008093BA021092BB021092BC020C94DE173D
:103070001092BA028FEF8093BB02F6CF1092BA0281
:103080001092BB028FEFDECF82EC8093BA021092D7
:10309000BB028CEFD7CFCF92DF92FF920F931F939B
:1030A000CF93DF93EC0161E08E810E94C3036AEF4E
:1030B00070E080E090E00E9440050E947205098562
:1030C0001A852B853C85601771078207930720F4CA
:1030D00019861A861B861C862D85211119C0098523
:1030E0001A852B853C85601B710B820B930B603D11
:1030F00077408105910560F48F818B3009F472C0AF
:1031000020F08551823008F477C089E19CEF6CC0D3
:103110001D860E94720569877A878B879C871C822F
:103120001B821A821982188261E08E810E94F1034B
:1031300060E08E810E94C30364E170E080E090E073
:103140000E944005F89461E08E810E94C3038BE9E0
:1031500090E00197F1F760E08E810E94F103F12C7D
:1031600081E010E000E0C82ED12C8E810E949A03ED
:103170008C159D0519F40F5F0F3FB9F78E810E94E2
:103180009A030F3FB9F0143090F010FD10C0EF2DEE
:10319000E695E695E695EC0FFD2FF11D9081990FD0
:1031A00090832885201710F491609083F3941F5F1B
:1031B0001535C1F6789487E28F1508F0A6CF4C81BB
:1031C00028818981280F3327331F8A81280F311DD9
:1031D0008B81820F932F911D99274817190609F0AB
:1031E00094CF8ACF8A8190E0DF91CF911F910F9188
:1031F000FF90DF90CF9008953A81832F8F7790E0F2
:10320000982F88272B81820F911D6AE070E00E9421
:10321000DD46CB0137FFE8CF919581959109E4CF49
:10322000CF92DF92EF92FF921F93CF93DF93EC0147
:1032300080E2689FF0011124E35DF54F9385917161
:1032400061F0842F827449F080E0DF91CF911F916B
:10325000FF90EF90DF90CF900895142F6A8B8091AC
:10326000000290910102A0910202B09103028E87A8
:103270009F87A88BB98BC488D588F12CE12C760167
:10328000DD24CC24CF8AD88EE98EFA8E828D938D60
:10329000B0E0A0E0AC01BD014C295D296E297F2979
:1032A0004F8B588F698F7A8F83858871B1F4848DA5
:1032B000958DA68DB78D8B8B9C8BAD8BBE8B81E056
:1032C0008D831F701C831E821F82188619861A86A2
:1032D0001B861C861D8681E0B8CF803109F0B4CFF3
:1032E0009E012D5E3F4F8B8D9C8D0E944D0D88233E
:1032F00009F4AACF84E0E4CF0F931F93CF938C01FE
:10330000C62F0E947E166C2F6460C8010E947E1634
:103310006C2F6B7FC8010E947E1683EC90E00197B2
:10332000F1F7CF911F910F9108950F931F93CF93B2
:10333000DF938C01D62FC42F607F642B0E947C19F1
:1033400080E1D89FB00111246C2BC801DF91CF918F
:103350001F910F910C947C1940E061E08DE890E1A1
:103360000E9495198BE39FE10197F1F70895109260
:10337000B9020E94AC191092981060E08DE890E1BB
:103380000C947E16CF93DF9300D000D01F921F9233
:10339000CDB7DEB798E0E0EDF2E0DE0111960190E6
:1033A0000D929A95E1F790919510961708F46FEFAA
:1033B000262F30E0220F331F41E050E04C0F5D1FFD
:1033C000240F351FF9016081680F606840E08DE8C7
:1033D00090E128960FB6F894DEBF0FBECDBFDF9107
:1033E000CF910C94951941E00E94951981E090E0ED
:1033F0000895FB0101900020E9F73197AF01461BCA
:10340000570BDC01ED91FC910280F381E02D1994C2
:103410008F929F92AF92BF92EF92FF920F931F9362
:10342000CF93DF93CDB7DEB7A1970FB6F894DEBF89
:103430000FBECDBF7C01FA01CB0119A2223008F4E6
:103440002AE08E010F5D1F4F822E912CB12CA12CF2
:10345000BF01A50194010E947445F901CA016A30B7
:103460000CF5605DD8016E938D01232B242B252B49
:1034700079F790E080E0109721F0BD01C7010E942C
:10348000F919A1960FB6F894DEBF0FBECDBFDF913C
:10349000CF911F910F91FF90EF90BF90AF909F90B1
:1034A0008F900895695CDECFCF92DF92EF92FF920A
:1034B0000F931F93CF93DF9377FF21C06A017B01A6
:1034C000EC01E881F9810190F081E02D6DE2199520
:1034D0008C0144275527BA014C195D096E097F09F3
:1034E0002AE0CE010E94081A800F911FDF91CF9130
:1034F0001F910F91FF90EF90DF90CF9008952AE0F9
:10350000DF91CF911F910F91FF90EF90DF90CF90BF
:103510000C94081A6115710511F00C94F91990E0DA
:1035200080E00895CF93DF93EC018CEC9CE00E9447
:103530005107892B29F08CEC9CE00E94B106F5CF55
:10354000BE018CEC9CE00E948A1A0E945E080E94D8
:103550005E08DF91CF910C945E08CF93DF93EC016E
:1035600088819981009711F00E94A44719821882DE
:103570001D821C821B821A82DF91CF910895FC016B
:1035800080819181009711F00C94A4470895CF9306
:10359000DF93EC01898D9A8D009741F00E944410D1
:1035A000898D9A8D0E94A4471A8E198EDF91CF9132
:1035B00008950F931F93CF93DF93EC018881998136
:1035C000009759F02A813B812617370730F081E0B8
:1035D000DF91CF911F910F9108958B016F5F7F4F06
:1035E0000E942D48009759F0998388831B830A8392
:1035F0002C813D81232B59F7FC011082E8CF80E01C
:10360000E7CFEF92FF920F931F93CF93DF93611554
:10361000710541F480E0DF91CF911F910F91FF90F0
:10362000EF90089541155105B1F07B01EC010C813B
:103630001D81040F151FB8010E94D91A882351F368
:10364000288139818C819D81B701820F931F0E944F
:103650003F491D830C8381E0DECFCF93DF93EC01E4
:103660006115710539F4CE010E94AD1ACE01DF91CA
:10367000CF910895FB0101900020E9F73197AF0148
:10368000461B570B0E94011B882369F3EFCFCF9392
:10369000DF93EC01FB0144815581608171810E94BF
:1036A000011B811103C0CE010E94AD1ACE01DF9132
:1036B000CF910895EF92FF920F931F93CF93DF93D3
:1036C000EC017B018A01BA010E94D91A81110BC059
:1036D000CE010E94AD1ACE01DF91CF911F910F91C3
:1036E000FF90EF9008951D830C83B7018881998125
:1036F0000E943F49F0CFFB0101900020E9F731978C
:10370000AF01461B570B0C945A1B0F931F93CF937B
:10371000DF93CDB7DEB7A1970FB6F894DEBF0FBE2B
:10372000CDBF8C01CB01BA01F80111821082138246
:103730001282158214822AE0AE014F5F5F4F0E9411
:103740007341BE016F5F7F4FC8010E947B1BA19632
:103750000FB6F894DEBF0FBECDBFDF91CF911F91A2
:103760000F9108950F931F93CF93DF9300D000D054
:1037700000D0CDB7DEB78C01862FF8011182108200
:1037800013821282158214824AE0BE016F5F7F4F5E
:1037900090E00E949541BE016F5F7F4FC8010E947B
:1037A0007B1B29960FB6F894DEBF0FBECDBFDF910D
:1037B000CF911F910F9108950F931F93CF93DF9394
:1037C000CDB7DEB762970FB6F894DEBF0FBECDBFA0
:1037D0008C01CB01F80111821082138212821582B2
:1037E00014824AE0BE016F5F7F4F0E945341BE01C9
:1037F0006F5F7F4FC8010E947B1B62960FB6F894E3
:10380000DEBF0FBECDBFDF91CF911F910F91089505
:10381000CF93DF93EC016115710531F00E947B1BA2
:10382000CE01DF91CF9108950E94AD1AF9CFCF93C9
:10383000DF93EC01FB018617970749F060817181E6
:103840006115710541F0448155810E945A1BCE01DA
:10385000DF91CF9108950E94AD1AF9CFFC0111823A
:1038600010821382128215821482FB0101900020C3
:10387000E9F73197AF01461B570B0C945A1BEF9297
:10388000FF920F931F93CF93DF93CDB7DEB72E97A1
:103890000FB6F894DEBF0FBECDBF7C018B0162E591
:1038A00073E0CE0109960E942E1CF701628173819C
:1038B0006115710561F0FB0101900020E9F7319776
:1038C000AF01461B570BCE0109960E94011B44E035
:1038D00050E067E573E0CE0109960E94011B8985DF
:1038E0009A850E94921ACE01019628E0FC0111925D
:1038F0002A95E9F744E650E060E070E04093D00C90
:103900005093D10C6093D20C7093D30C68E070E0AC
:103910000E94C5060897D9F589818137C1F58E8146
:103920008F3FA9F58F818F3F91F588858F3F79F57E
:103930002D818C8190E0B0E0A0E0DC019927882700
:10394000B22B2A81822B4B8150E0542F4427052E25
:10395000000C660B770B842B952BA62BB72BF8014D
:1039600080839183A283B38311E0CE0109960E94E4
:10397000BF1A812F2E960FB6F894DEBF0FBECDBFB3
:10398000DF91CF911F910F91FF90EF90089510E07C
:10399000ECCFCF93DF9300D01F92CDB7DEB7198263
:1039A0001A821B821C82BE016F5F7F4F85EF9FE0F2
:1039B0000E943F1C89818093C7020F900F900F9047
:1039C0000F90DF91CF910895CF93DF9300D01F9296
:1039D000CDB7DEB719821A821B821C82BE016F5FCF
:1039E0007F4F85EC9FE00E943F1C89819A819093D4
:1039F0009E0280939D020F900F900F900F90DF9189
:103A0000CF910895CF93DF9300D01F92CDB7DEB74B
:103A100019821A821B821C82BE016F5F7F4F85E96B
:103A20009FE00E943F1C89819A819093A00280931D
:103A30009F020F900F900F900F90DF91CF910895FC
:103A4000CF93DF9300D01F92CDB7DEB719821A82D1
:103A50001B821C82BE016F5F7F4F85E69FE00E9444
:103A60003F1C89819A819093A2028093A1020F90BA
:103A70000F900F900F90DF91CF910895CF93DF9328
:103A800000D01F92CDB7DEB719821A821B821C822A
:103A9000BE016F5F7F4F85EA9EE00E943F1C298137
:103AA0003A814B815C81AAEFB0E00E94694524E62F
:103AB00030E040E050E00E944A452B5F3F4F4F4FBF
:103AC0005F4F209319020F900F900F900F90DF918E
:103AD000CF9108953F924F925F926F927F928F9213
:103AE0009F92AF92BF92CF92DF92EF92FF920F938D
:103AF0001F93CF93DF9300D000D000D01F921F926E
:103B0000CDB7DEB77C01FE013196CE010C966F0178
:103B100030E23193E817F907E1F7DA0130E087E0A6
:103B20009D91B92E992309F43CC09E32F1F48A305C
:103B3000C9F480E02B960FB6F894DEBF0FBECDBF60
:103B4000DF91CF911F910F91FF90EF90DF90CF9079
:103B5000BF90AF909F908F907F906F905F904F90AD
:103B60003F90089538E08AE0DBCFE9EBF3E0449141
:103B7000442321F031969413FACFDBCF8317C8F298
:103B80004FED490F4E35A8F64FE9490F4A3118F469
:103B900040EEB42EB90EF601E30FF11DB0823F5F87
:103BA000BFCF8981803229F2322E8B01DB015B96F7
:103BB0008D919C915C97F701948F838F16961D923F
:103BC0001D921D921C921997FB0112861386148672
:103BD0001586F80182859385A485B5854389548926
:103BE0006589768984179507A607B70708F04DC041
:103BF00025E0B695A795979587952A95D1F7F82F43
:103C0000FF70AF2ED80115968C91823008F491CFB9
:103C1000C8010E94B91297FD8CCFF8018285938567
:103C2000A485B5854F96A11DB11D82879387A48772
:103C3000B587F0E2AF9EB0011124635D754F611549
:103C4000710509F476CFDB018C91882341F0853E24
:103C500009F062C0BB2029F0BB24B394BACFB110E5
:103C60000EC0F701A28A8091000290910102A091FA
:103C70000202B091030286879787A08BB18BDB018C
:103C80008C918111E9CFBB24B394832D8271823151
:103C900009F04FCFBB2009F44DC0F7016685778549
:103CA0008089918941E00E94B70A882309F441CFB5
:103CB000D70152968C91B0E28B9FC0011124835D95
:103CC000954F009709F435CFFC013A9626E1DF01C4
:103CD0001D922A95E9F72BE0F601DC0101900D9287
:103CE0002A95E1F721E238E2FC01318B208B40E09C
:103CF00058E057874687338B228B318F208F578B25
:103D0000468B81E00E948C0A882309F412CF432D50
:103D1000D70152966C910AC04BE050E0C6010E9458
:103D20000E49892B09F055CF432D6A2DC7010E94FA
:103D3000101900CFF8018581823009F4FACEC8014C
:103D40000E94A00E882309F4F4CED8015B96ED9171
:103D5000FC915C9716968D909D90AD90BC901997B4
:103D6000B2E08B1A9108A108B108858504C0880CBF
:103D7000991CAA1CBB1C8A95D2F786859785A089B9
:103D8000B189880E991EAA1EBB1E848124013501AB
:103D9000480E511C611C711C84149504A604B704C0
:103DA00009F1E1E04E1A51086108710881E00E94B2
:103DB0008C0A882309F4BDCEEDE2FAE011928DE27F
:103DC0009CE08E179F07D1F74092000250920102AB
:103DD000609202027092030280919E09816080933A
:103DE0009E09DACFD8015B96ED91FC91258580E0A4
:103DF00092E0A0E0B0E004C0880F991FAA1FBB1F8B
:103E00002A95D2F7F8014389548965897689840F08
:103E1000951FA61FB71F838B948BA58BB68BD701DD
:103E200052961C928DE29AE04FCFEF92FF920F9341
:103E30001F93CF93DF93EC017B018A011B821A82CF
:103E400088EE93E0A0E0B0E08C839D83AE83BF83D7
:103E500088E093E0998388838DE190E00E94084791
:103E60009A8F898F009779F02DE1F701DC0101909D
:103E70000D922A95E1F74CE050E0B801CE010C9686
:103E80000E944649188EDF91CF911F910F91FF90AC
:103E9000EF900895EF92FF920F931F93CF93DF93CC
:103EA000CDB7DEB7C755D1090FB6F894DEBF0FBE48
:103EB000CDBF8C011C821B828CE2E82E83E0F82EA1
:103EC000FA82E9821E82CE0101960E94B80DBE01DF
:103ED0006F5F7F4FCE01CB960E94FD1119A218A2F1
:103EE000FF8EEE8E1BA221968FAD2197811121C0EE
:103EF000F8011382128288EE93E0A0E0B0E08483A0
:103F00009583A683B78388E093E091838083128EA4
:103F1000118E1486C801C95ADF4F0FB6F894DEBF60
:103F20000FBECDBFDF91CF911F910F91FF90EF900A
:103F3000089527E14CE553E0BE01655C7F4FCE015B
:103F40004E960E946A1D882399F2CE01CB960E945C
:103F5000441049A95AA96BA97CA9CE014E960E948A
:103F60000C0EBE01625E7F4FCE0101960E94FD11D4
:103F70004CE553E0BE016F5F7F4FC8010E94151FE3
:103F8000C9CFCF92DF92EF92FF920F931F93CF93FF
:103F9000DF93CDB7DEB762970FB6F894DEBF0FBEE2
:103FA000CDBF7B018A01880F991FFC01E450FD4FB2
:103FB000C080D1800E947205AB01BC01CE01019688
:103FC0000E94851B18861F821A8619861C861B86EE
:103FD000BE016F5F7F4FCE0107960E94171C69E6F6
:103FE00073E0CE0107960E942D1BB6010E942D1B87
:103FF00069E673E00E942D1BB7010E942D1B69E644
:1040000073E00E942D1BB8010E94471B67E176E018
:104010000E942D1B1E861D86188A1F861A8A198AE1
:10402000BC01CE010D960E94171CCE0107960E947E
:10403000BF1ACE0101960E94BF1ABE01635F7F4F77
:1040400089E69DE00E942A0680910B0A883010F5CF
:1040500091E0980F90930B0A26E0829FC0011124F3
:10406000BE01635F7F4F8B5A9F4E0E94171CCE018B
:104070000D960E94BF1A62960FB6F894DEBF0FBE6F
:10408000CDBFDF91CF911F910F91FF90EF90DF9007
:10409000CF9008958091BE029091BF0201969093B7
:1040A000BF028093BE02E3CFCF93DF9300D000D056
:1040B000CDB7DEB781E0809382026BE673E0CE017C
:1040C00001960E942E1CAE014F5F5F4F60E873E0C7
:1040D00090E080E00E94C11FCE0101960E94BF1AAD
:1040E00026960FB6F894DEBF0FBECDBFDF91CF91FD
:1040F0000895CF93DF9300D000D0CDB7DEB71092F4
:1041000082020E94841768E873E0CE0101960E9443
:104110002E1CAE014F5F5F4F60E873E090E080E0DF
:104120000E94C11FCE0101960E94BF1A26960FB6AB
:10413000F894DEBF0FBECDBFDF91CF910895CF932E
:10414000DF93CDB7DEB72C970FB6F894DEBF0FBE66
:10415000CDBF80918A0290918B02A0918C02B09188
:104160008D02803127E29207A105B1050CF44EC003
:10417000BC01CD01693428EE720721E08207910568
:1041800024F068E478EE81E090E06858734181099A
:10419000910960938A0270938B0280938C029093B2
:1041A0008D0228EE33E040E050E00E947445BA01F1
:1041B000A901CE0107960E94851B6EE973E0CE012E
:1041C00001960E942E1CBE01695F7F4FCE010196B1
:1041D0000E94471B64EB73E00E942D1BAC0160E85A
:1041E00073E090E080E00E94C11FCE0101960E9422
:1041F000BF1ACE0107960E94BF1A2C960FB6F894EC
:10420000DEBF0FBECDBFDF91CF91089568E873E1A7
:1042100080E090E0BECFCF93DF93CDB7DEB72C9791
:104220000FB6F894DEBF0FBECDBF80918A02909189
:104230008B02A0918C02B0918D02B7FD4EC0BC01E3
:10424000CD01693321EC720721E08207910524F04A
:1042500068E371EC81E090E068577C4E8F4F9F4F90
:1042600060938A0270938B0280938C0290938D02EC
:1042700028EE33E040E050E00E947445BA01A90105
:10428000CE0107960E94851B66EB73E0CE01019676
:104290000E942E1CBE01695F7F4FCE0101960E94D5
:1042A000471B64EB73E00E942D1BAC0160E873E0D8
:1042B00090E080E00E94C11FCE0101960E94BF1ACB
:1042C000CE0107960E94BF1A2C960FB6F894DEBF57
:1042D0000FBECDBFDF91CF91089568E873E180E014
:1042E00090E0BECFCF93DF9300D000D0CDB7DEB744
:1042F00080917F0291E0892780937F0267EE73E0CF
:10430000882311F06CEC73E0CE0101960E942E1C04
:10431000AE014F5F5F4F60E873E081E090E00E9484
:10432000C11FCE0101960E94BF1A26960FB6F894BF
:10433000DEBF0FBECDBFDF91CF91089585ED809395
:10434000BC008091760990917709A0917809B0918D
:1043500079090796A11DB11D23E0B695A7959795FC
:1043600087952A95D1F72091BC0024FD03C01092B7
:104370007409089540917609509177096091780900
:1043800070917909452B462B472B69F30097A105BE
:10439000B10541F02AE22A95F1F700C00197A10981
:1043A000B109E1CF809175090C94D8151F93CF9373
:1043B000DF93EC01162F0E943445181739F0612F56
:1043C000CE01DF91CF911F910C943C45DF91CF91AD
:1043D0001F9108950C943445DF92EF92FF920F9352
:1043E0001F93CF93DF938091B0028F938091AF02A0
:1043F0008F9382E294E09F938F931F9210E31F9319
:10440000CAEBD8E0DF93CF930E945549BE018CECF4
:104410009CE00E948A1A0E947E178091B2028F93BC
:104420008091B1028F9386E394E09F938F931F92C4
:104430001F93DF93CF930E945549BE018CEC9CE003
:104440000E948A1A0E947E178091AE028F938091FB
:10445000AD028F938CE494E09F938F931F921F93F0
:10446000DF93CF930E945549BE018CEC9CE00E94E3
:104470008A1A0E947E1760918A0270918B02809145
:104480008C0290918D0228EE33E040E050E00E94D3
:1044900074455F934F933F932F9382E694E09F93ED
:1044A0008F931F921F93DF93CF930E9455498DB72F
:1044B0009EB782960FB6F8949EBF0FBE8DBFBE0109
:1044C0008CEC9CE00E948A1A0E947E178091B502B3
:1044D00063E174E0882311F065E074E08CEC9CE00B
:1044E0000E948A1A0E947E178091A702813009F4E7
:1044F0007EC008F475C0823009F47CC00E947E172B
:1045000060917602709177028091780290917902A1
:1045100000EB18E022E044E00E940E417801FF9297
:104520000F9384EB94E09F938F931F9280E3D82E98
:10453000DF92CAEBD8E0DF93CF930E945549BE01CA
:104540008CEC9CE00E948A1A0E947E1760917A028D
:1045500070917B0280917C0290917D0222E044E088
:104560000E940E41FF920F9386EC94E09F938F93ED
:104570001F92DF92DF93CF930E945549BE018CECCE
:104580009CE00E948A1A0E947E178DB79EB74096C3
:104590000FB6F8949EBF0FBE8DBF80917F0268ED6D
:1045A00074E0811102C062EF74E08CEC9CE00E9428
:1045B0008A1A0E947E178091AA026EE873E088230F
:1045C00011F062EA73E08CEC9CE00E943806DF9107
:1045D000CF911F910F91FF90EF90DF900C947E1779
:1045E0006FE674E08CEC9CE00E948A1A87CF64E846
:1045F00074E0F8CF6CE974E0F5CF1F920F920FB61C
:104600000F9211242F933F938F939F93AF93BF9358
:1046100080911B0A90911C0AA0911D0AB0911E0A5C
:1046200030911A0A23E0230F2D3758F50196A11D6A
:10463000B11D20931A0A80931B0A90931C0AA09321
:104640001D0AB0931E0A80911F0A9091200AA09122
:10465000210AB091220A0196A11DB11D80931F0A63
:104660009093200AA093210AB093220ABF91AF91A0
:104670009F918F913F912F910F900FBE0F901F90A0
:10468000189526E8230F0296A11DB11DD2CF1F92C7
:104690000F920FB60F9211240BB60F922F933F93E8
:1046A0004F935F936F937F938F939F93AF93BF933A
:1046B000EF93FF93E0911202F09113021995FF918D
:1046C000EF91BF91AF919F918F917F916F915F918A
:1046D0004F913F912F910F900BBE0F900FBE0F90F7
:1046E0001F9018951F920F920FB60F9211240BB6C0
:1046F0000F922F933F934F935F936F937F938F937B
:104700009F93AF93BF93EF93FF93E0911002F091CB
:1047100011021995FF91EF91BF91AF919F918F91E8
:104720007F916F915F914F913F912F910F900BBEB1
:104730000F900FBE0F901F9018951F920F920FB6FB
:104740000F9211240BB60F922F933F934F935F93C9
:104750006F937F938F939F93AF93BF93EF93FF9349
:10476000E0910602F09107021995FF91EF91BF9138
:10477000AF919F918F917F916F915F914F913F91F9
:104780002F910F900BBE0F900FBE0F901F9018959A
:104790001F920F920FB60F9211240BB60F922F9308
:1047A0003F934F935F936F937F938F939F93AF93B9
:1047B000BF93EF93FF93E0910402F09105021995E6
:1047C000FF91EF91BF91AF919F918F917F916F91E9
:1047D0005F914F913F912F910F900BBE0F900FBEA5
:1047E0000F901F9018951F920F920FB60F921124E1
:1047F0000BB60F922F933F934F935F936F937F93DB
:104800008F939F93AF93BF93EF93FF93E0910E022B
:10481000F0910F021995FF91EF91BF91AF919F9188
:104820008F917F916F915F914F913F912F910F9059
:104830000BBE0F900FBE0F901F9018951F920F92F6
:104840000FB60F9211240BB60F922F933F934F93F5
:104850005F936F937F938F939F93AF93BF93EF93E8
:10486000FF93E0910C02F0910D021995FF91EF91E9
:10487000BF91AF919F918F917F916F915F914F9178
:104880003F912F910F900BBE0F900FBE0F901F9076
:1048900018951F920F920FB60F9211240BB60F921C
:1048A0002F933F934F935F936F937F938F939F9338
:1048B000AF93BF93EF93FF93E0910A02F0910B0245
:1048C0001995FF91EF91BF91AF919F918F917F913A
:1048D0006F915F914F913F912F910F900BBE0F9071
:1048E0000FBE0F901F9018951F920F920FB60F9248
:1048F00011240BB60F922F933F934F935F936F93B7
:104900007F938F939F93AF93BF93EF93FF93E09128
:104910000802F09109021995FF91EF91BF91AF91B3
:104920009F918F917F916F915F914F913F912F91C7
:104930000F900BBE0F900FBE0F901F9018951F92F7
:104940000F920FB60F9211240BB60F922F933F9335
:104950004F935F936F937F938F939F93AF93BF9387
:10496000EF93FF938FE29CE00E94EF07FF91EF919E
:10497000BF91AF919F918F917F916F915F914F9177
:104980003F912F910F900BBE0F900FBE0F901F9075
:1049900018951F920F920FB60F9211240BB60F921B
:1049A0002F933F934F935F936F937F938F939F9337
:1049B000AF93BF93EF93FF938FE29CE00E94890631
:1049C000FF91EF91BF91AF919F918F917F916F91E7
:1049D0005F914F913F912F910F900BBE0F900FBEA3
:1049E0000F901F9018951F920F920FB60F921124DF
:1049F0000BB60F922F933F934F935F936F937F93D9
:104A00008F939F93AF93BF93EF93FF938CEC9CE0B6
:104A10000E94EF07FF91EF91BF91AF919F918F910E
:104A20007F916F915F914F913F912F910F900BBEAE
:104A30000F900FBE0F901F9018951F920F920FB6F8
:104A40000F9211240BB60F922F933F934F935F93C6
:104A50006F937F938F939F93AF93BF93EF93FF9346
:104A60008CEC9CE00E948906FF91EF91BF91AF9181
:104A70009F918F917F916F915F914F913F912F9176
:104A80000F900BBE0F900FBE0F901F9018951F92A6
:104A90000F920FB60F9211240BB60F922F933F93E4
:104AA0004F935F936F937F938F939F93AF93BF9336
:104AB000EF93FF9389E69DE00E94EF07FF91EF914E
:104AC000BF91AF919F918F917F916F915F914F9126
:104AD0003F912F910F900BBE0F900FBE0F901F9024
:104AE00018951F920F920FB60F9211240BB60F92CA
:104AF0002F933F934F935F936F937F938F939F93E6
:104B0000AF93BF93EF93FF9389E69DE00E948906E0
:104B1000FF91EF91BF91AF919F918F917F916F9195
:104B20005F914F913F912F910F900BBE0F900FBE51
:104B30000F901F9018951F920F920FB60F9211248D
:104B40000F900FBE0F901F9018951F920F920FB6E7
:104B50000F9211240BB60F922F933F934F935F93B5
:104B60006F937F938F939F93AF93BF93EF93FF9335
:104B70008091B900887F803609F44DC008F040C0AC
:104B8000883209F4A9C028F5803109F49DC0C8F421
:104B9000882309F4FBC0883009F496C0FF91EF9197
:104BA000BF91AF919F918F917F916F915F914F9145
:104BB0003F912F910F900BBE0F900FBE0F901F9043
:104BC0001895883109F488C0803241F780937209C2
:104BD00014C0803409F49DC040F48033B9F38833A5
:104BE000E9F68093720985ECB0C0803509F485C080
:104BF000883509F496C0883489F60E949E21CECF6C
:104C0000883909F48CC038F5883729F050F4883693
:104C100011F0803719F683E08093740910924D09E2
:104C200057C0883809F47BC0803919F0803809F002
:104C3000B5CF80914D09803208F071C0E0914D09E7
:104C400081E08E0F80934D098091BB00F0E0E35D21
:104C5000F64F80833DC0803B39F0E0F4803A09F4A0
:104C600079C0883A09F09ACF84E080937409109251
:104C70002C0910922B09E091A609F091A70919952A
:104C800080912B0981110FC081E080932B09109234
:104C90000B0909C0803C09F4A6CF883C09F4A3CFD6
:104CA000883B09F07BCFE0912C0981E08E0F809347
:104CB0002C09F0E0E55FF64F80818093BB00909176
:104CC0002C0980912B0929C080914F098093BB004A
:104CD00085EC8093BC0062CF90917109809170093E
:104CE000981758F5E091710981E08E0F8093710952
:104CF000F0E0E05BF64F8081E9CFE091710981E05F
:104D00008E0F809371098091BB00F0E0E05BF64F5D
:104D1000808390917109809170099817C8F285E895
:104D2000D8CFE091710981E08E0F80937109809155
:104D3000BB00F0E0E05BF64F808380917309811146
:104D40005CCF81E080934E0984EA8093BC0010928E
:104D5000740924CF85EC8093BC0010927409809173
:104D60004D09803230F4E0914D09F0E0E35DF64FFB
:104D7000108260914D0970E0E091A809F091A909B5
:104D80008DE299E0199510924D0908CF10927209A1
:104D900034CF1F920F920FB60F9211248F9381E0A0
:104DA0008093150A8F910F900FBE0F901F9018954A
:104DB000CF92DF92EF92FF920F931F93CF93DF93E7
:104DC000EC016B01F42EE52E198218861F86188AD5
:104DD000198A1A8A81E08E878B871C8692E09D87CC
:104DE00088838B01000F111F060F171F1D830C8373
:104DF000C8010E9408479A878987009789F1A8010E
:104E000070E060E00E942449DB82CA82FE82EF8269
:104E10008981882341F061E08F2D0E94F10360E0D9
:104E20008F2D0E94C3038F2D9E2DFC01EA59FA4F4E
:104E3000E491F0E0EE0FFF1FE45BFA4F259134910F
:104E40003C8B2B8BFC01EA5FFA4FE491ED8BDF91F9
:104E5000CF911F910F91FF90EF90DF90CF90089529
:104E60001D821C821B821A82D1CFEF92FF920F9378
:104E70001F93CF93DF931092320C1092310C88EE77
:104E800093E0A0E0B0E08093330C9093340CA093B7
:104E9000350CB093360C2AE133E03093300C20937C
:104EA0002F0C45E351E050933C0C40933B0C44E302
:104EB00051E050933E0C40933D0C40E351E0509341
:104EC000400C40933F0C41E351E05093420C40931F
:104ED000410C42E351E05093440C4093430C46E3B1
:104EE00051E05093460C4093450C1092480C1092A0
:104EF000490C10924A0C10924B0C1092CF0C10924D
:104F0000CE0C8093D00C9093D10CA093D20CB09384
:104F1000D30C3093CD0C2093CC0C45ED50E0509346
:104F2000D90C4093D80C44ED50E05093DB0C4093E7
:104F3000DA0C40ED50E05093DD0C4093DC0C41ED79
:104F400050E05093DF0C4093DE0C42ED50E0509364
:104F5000E10C4093E00C46ED50E05093E30C40939D
:104F6000E20C1092E50C1092E60C1092E70C1092F5
:104F7000E80C10926C0D10926B0D80936D0D909358
:104F80006E0DA0936F0DB093700D30936A0D20934A
:104F9000690D25EC30E03093760D2093750D24ECEF
:104FA00030E03093780D2093770D20EC30E0309393
:104FB0007A0D2093790D21EC30E030937C0D209315
:104FC0007B0D22EC30E030937E0D20937D0D26EC9E
:104FD00030E03093800D20937F0D1092820D10925F
:104FE000830D1092840D1092850D20E52093060EFE
:104FF0001092070E10920D0E10920E0E1092110EBE
:105000001092130E42E050E060E070E04093140E06
:105010005093150E6093160E7093170E10922B0E70
:105020001092350E1092340E2CE233E03093330E92
:105030002093320E1092370E1092540E1092530E8F
:105040008093550E9093560EA093570EB093580E22
:1050500088E393E09093520E8093510E68E176E0DE
:105060008FEE90E10E942E1C4EE150E068E070E06F
:1050700089ED90E10E94D82683E28093D1102BE045
:105080002093D21096E09093D31081E08093D810B3
:1050900034E23093C3102093C4109093C5108093D2
:1050A000CA1035E23093B5102093B6109093B71024
:1050B0008093BC104AE250E06AE070E089E990E138
:1050C0000E94D8261092901010928F108AE493E0DC
:1050D00090938E1080938D1087E28093911084E1DD
:1050E0008093961084E0809397101092981080918E
:1050F0009D0290919E029C012253310930938C10A5
:1051000020938B108C599F4F90938A108093891015
:1051100080919F029091A0029C012253310930930B
:105120008810209387108C599F4F909386108093FE
:105130008510C5E5D0E168E176E0CE010E942E1C25
:10514000269680E1C538D807B1F781E080934910F1
:1051500080934A102FE035E030934C1020934B1091
:1051600010924E1010924D10109252101092511039
:1051700010925410109253101092501010924F1021
:1051800080933D10B2E0B0933E10E2E1F5E0F09381
:105190004010E0933F101092421010924110109274
:1051A000461010924510109248101092471010921D
:1051B0004410109243108093311096E09093321077
:1051C00025E135E0309334102093331010923610DF
:1051D0001092351010923A101092391010923C1023
:1051E00010923B10109238101092371080932510B7
:1051F00083E08093261048E155E0509328104093B7
:10520000271010922A101092291010922E1010922E
:105210002D101092301010922F1010922C1010920E
:105220002B10B093191064E060931A104DE155E013
:1052300050931C1040931B1010921E1010921D10C2
:10524000109222101092211010922410109223100C
:105250001092201010921F10AFE0A0930D1075E077
:1052600070930E1043E255E05093101040930F10CE
:105270001092121010921110109216101092151018
:105280001092181010921710109214101092131000
:10529000A0930110909302103093041020930310F8
:1052A000109206101092051010920A101092091018
:1052B00010920C1010920B10109208101092071000
:1052C000A093F50F6093F60FC6E2D5E0D093F80FE8
:1052D000C093F70F1092FA0F1092F90F1092FE0F71
:1052E0001092FD0F109200101092FF0F1092FC0F01
:1052F0001092FB0F8093E90FB093EA0FF093EC0F3D
:10530000E093EB0F1092EE0F1092ED0F1092F20F50
:105310001092F10F1092F40F1092F30F1092F00F01
:105320001092EF0F8093DD0F8093DE0F5093E00F0C
:105330004093DF0F1092E20F1092E10F1092E60FF0
:105340001092E50F1092E80F1092E70F1092E40F01
:105350001092E30F8093D10F7093D20F3093D40F3C
:105360002093D30F1092D60F1092D50F1092DA0F10
:105370001092D90F1092DC0F1092DB0F1092D80F01
:105380001092D70F7093C50F6093C60FD093C80FBC
:10539000C093C70F1092CA0F1092C90F1092CE0F70
:1053A0001092CD0F1092D00F1092CF0F1092CC0F01
:1053B0001092CB0F7093B90FB093BA0FF093BC0F4C
:1053C000E093BB0F1092BE0F1092BD0F1092C20F50
:1053D0001092C10F1092C40F1092C30F1092C00F01
:1053E0001092BF0F7093AD0F8093AE0F5093B00F1C
:1053F0004093AF0F1092B20F1092B10F1092B60FF0
:105400001092B50F1092B80F1092B70F1092B40F00
:105410001092B30F7093A10FA7E0A093A20F309347
:10542000A40F2093A30F1092A60F1092A50F109215
:10543000AA0F1092A90F1092AC0F1092AB0F1092FE
:10544000A80F1092A70F9093950F9093960FD0935B
:10545000980FC093970F10929A0F1092990F109275
:105460009E0F10929D0F1092A00F10929F0F1092FE
:105470009C0F10929B0F9093890F80938A0FF0934B
:105480008C0FE0938B0F10928E0F10928D0F109255
:10549000920F1092910F1092940F1092930F1092FE
:1054A000900F10928F0F90937D0F60937E0F50930B
:1054B000800F40937F0F1092820F1092810F1092F5
:1054C000860F1092850F1092880F1092870F1092FE
:1054D000840F1092830F9093710FA093720F3093EB
:1054E000740F2093730F1092760F1092750F109215
:1054F0007A0F1092790F10927C0F10927B0F1092FE
:10550000780F1092770FA093650F9093660FD0934A
:10551000680FC093670F10926A0F1092690F109274
:105520006E0F10926D0F1092700F10926F0F1092FD
:105530006C0F10926B0FA093590F80935A0FF0933A
:105540005C0FE0935B0F10925E0F10925D0F109254
:10555000620F1092610F1092640F1092630F1092FD
:10556000600F10925F0FA0934D0F60934E0F5093FA
:10557000500F40934F0F1092520F1092510F1092F4
:10558000560F1092550F1092580F1092570F1092FD
:10559000540F1092530FA093410FB093420F3093CA
:1055A000440F2093430F1092460F1092450F109214
:1055B0004A0F1092490F10924C0F10924B0F1092FD
:1055C000480F1092470F18E01093350FB093360F25
:1055D000F093380FE093370F10923A0F1092390F73
:1055E00010923E0F10923D0F1092400F10923F0FFD
:1055F00010923C0F10923B0F1093290F80932A0FAB
:1056000050932C0F40932B0F10922E0F10922D0FB2
:105610001092320F1092310F1092340F1092330FFC
:105620001092300F10922F0F10931D0F70931E0FBA
:105630003093200F20931F0F1092220F1092210FF2
:105640001092260F1092250F1092280F1092270FFC
:105650001092240F1092230F1093110F9093120F9A
:1056600009E2E02E05E0F02EF092140FE092130F05
:105670001092160F1092150F10921A0F1092190F08
:1056800010921C0F10921B0F1092180F1092170FF0
:1056900009E00093050FB093060FF093080FE09315
:1056A000070F10920A0F1092090F10920E0F10920E
:1056B0000D0F1092100F10920F0F10920C0F1092EE
:1056C0000B0F0093F90E8093FA0E5093FC0E40934B
:1056D000FB0E1092FE0E1092FD0E1092020F109211
:1056E000010F1092040F1092030F1092000F1092EE
:1056F000FF0EBBE0B093ED0E8093EE0E5093F00ED4
:105700004093EF0E1092F20E1092F10E1092F60EE0
:105710001092F50E1092F80E1092F70E1092F40EF1
:105720001092F30EB093E10E6093E20E3093E40E0C
:105730002093E30E1092E60E1092E50E1092EA0E00
:105740001092E90E1092EC0E1092EB0E1092E80EF1
:105750001092E70EB093D50EA093D60EA4E3EA2ED6
:10576000A5E0FA2EF092D80EE092D70E1092DA0E43
:105770001092D90E1092DE0E1092DD0E1092E00EF5
:105780001092DF0E1092DC0E1092DB0EB093C90E59
:105790001093CA0EA7E3B5E0B093CC0EA093CB0E46
:1057A0001092CE0E1092CD0E1092D20E1092D10EFB
:1057B0001092D40E1092D30E1092D00E1092CF0EE3
:1057C000ACE0A093BD0E8093BE0E5093C00E4093EC
:1057D000BF0E1092C20E1092C10E1092C60E109201
:1057E000C50E1092C80E1092C70E1092C40E1092E1
:1057F000C30EA093B10E6093B20E3093B40E2093FB
:10580000B30E1092B60E1092B50E1092BA0E109200
:10581000B90E1092BC0E1092BB0E1092B80E1092E0
:10582000B70EA093A50E7093A60ED093A80EC093AA
:10583000A70E1092AA0E1092A90E1092AE0E109200
:10584000AD0E1092B00E1092AF0E1092AC0E1092E0
:10585000AB0EADE0A093990E80939A0E50939C0EE0
:1058600040939B0E10929E0E10929D0E1092A20ECF
:105870001092A10E1092A40E1092A30E1092A00EE0
:1058800010929F0EA0938D0E60938E0E3093900E0B
:1058900020938F0E1092920E1092910E1092960EEF
:1058A0001092950E1092980E1092970E1092940EE0
:1058B0001092930EA093810E7093820EAAE3B5E02E
:1058C000B093840EA093830E1092860E1092850ED4
:1058D00010928A0E1092890E10928C0E10928B0EDE
:1058E0001092880E1092870E7EE07093750E809352
:1058F000760EF093780EE093770E10927A0E109257
:10590000790E10927E0E10927D0E1092800E1092E3
:105910007F0E10927C0E10927B0E7093690E609336
:105920006A0E50936C0E40936B0E10926E0E109296
:105930006D0E1092720E1092710E1092740E1092E3
:10594000730E1092700E10926F0E70935D0E909306
:105950005E0E3093600E20935F0E1092620E1092D6
:10596000610E1092660E1092650E1092680E1092E3
:10597000670E1092640E1092630EDF91CF911F910B
:105980000F91FF90EF900895CF93DF93CDB7DEB7DF
:10599000CB57D1090FB6F894DEBF0FBECDBF7894B8
:1059A00084B5826084BD84B5816084BD85B5826024
:1059B00085BD85B5816085BD80916E0081608093D5
:1059C0006E0010928100809181008260809381003E
:1059D000809181008160809381008091800081604E
:1059E000809380008091B10084608093B1008091A9
:1059F000B00081608093B0008091910082608093BC
:105A0000910080919100816080939100809190003D
:105A10008160809390008091A10082608093A100BA
:105A20008091A10081608093A1008091A00081609D
:105A30008093A00080912101826080932101809158
:105A400021018160809321018091200181608093F8
:105A5000200180917A00846080937A0080917A009E
:105A6000826080937A0080917A00816080937A00CE
:105A700080917A00806880937A001092C10089E654
:105A80009DE00E940B038CEC9CE00E940B038FE2D4
:105A90009CE00E940B031092AD091092AC09109289
:105AA000AB091092AA090E94BA1583E296E090937E
:105AB000A7098093A60984E296E09093A9098093B0
:105AC000A80984E1E8EDF2E0DE01D49601900D92A0
:105AD0008A95E1F78E010C5C1F4F680124E1C20E2C
